:020000040040BA
:10400000206E0020E14040003DB44100FD404000F2
:104010000941400015414000214140002D41400030
:10402000FFFFFFFF0040400052325346B1B841004D
:10403000E5B3410000A1266611B84100D5B84100A2
:10404000D3B34100D7B34100E1B3410001B841000F
:10405000E1B94100DDB3410005B8410007B84100B6
:1040600013BA410005BA4100E7B34100E9B341008A
:10407000CFB34100F5B3410079B8410083B84100A6
:1040800085B8410087B8410089B841008BB841002C
:104090008DB841008FB8410091B8410011BA41007C
:1040A000DBB34100F9B9410095B84100D9B34100F3
:1040B000BDB94100C9B94100D5B94100A1B841001D
:1040C00065B841006DB8410031B44100DFF80CD053
:1040D00017F02CF900480047ED404000206E00200A
:1040E00072B617F00DFC03480047000017F05AFCA9
:1040F00001480047CD4040003D22420070466946DD
:104100004FF0000219F07CF9704669464FF0010249
:1041100019F076F9704669464FF0020219F070F90D
:10412000704669464FF0030219F06AF97046694615
:104130004FF0040219F064F92DE9F04F8BB00190B3
:1041400007AA4FF0A240002110231DF0EEF89DF8C1
:1041500023009DF821A09DF820409DF81CE09DF8CB
:1041600027609DF824C04FF4FF519DF82A809DF8E8
:104170001E509DF81FB09DF81D9044EA0A2702903A
:10418000C0080CF07C036EF3155007F4786740EA22
:10419000C7309DF826703A0442EA066201EA92327C
:1041A0009DF82B10024442EA43629DF82930180220
:1041B00040EA084000F4FE2042EA40005E4A5040D7
:1041C0004FEA4E620490280440EA0B6042EA9030C5
:1041D0005A4A10404FEA0A229DF822A042EA0A42B7
:1041E00002F4FE2240EA42000CF0030240EAD10051
:1041F00040EA02509DF8282042EA032303F4786342
:1042000040EAC3304E4B5840F30806904FEA09206D
:1042100040EA054007AD00F4FE2043EA400004F008
:10422000030340EA03509DF825304CEA032606F4C8
:10423000786640EAC6304FEA084646EA01614FF424
:10424000FF5606EA9131084402F07C0140EA4160E1
:104250003C494840029905904FEA0A4040EA016013
:104260004EEA092101F4786106EA9030C90341EA77
:10427000DB01084404F07C0140EA416019022B464E
:1042800041EA074101F4FE2140EA410002F0030146
:1042900043F6100240EA01502B49484000210390A8
:1042A000102000904FF0A2401CF0CEFF03A928463A
:1042B000102216F0EEFA08B1012538E00620019C24
:1042C00007AB002143F6080200904FF0A2401CF01B
:1042D000BBFF9DF821009DF820100840FF280FD15A
:1042E0009DF81E009DF81F100840FF2808D19DF87A
:1042F0001C009DF81D100840FF2801D102250FE089
:104300000120EB1D002143F6240200904FF0A24053
:104310001CF09AFF9DF82300AA3818BF0120450021
:10432000204608F0DFF807A9002006F01FFA28460B
:104330000BB0BDE8F08F00BF73656120E01F00F88F
:10434000324634324353543963686970F0B5244AB5
:10435000244B254D10681844B0FBF5F42348016840
:10436000C907234907D10E6846F080760E600668BB
:1043700046F001060660466864004768BF1BA74216
:10438000FBD91C4C012626601B4C276847F480672C
:104390002760276827F400672760C4F874611268F3
:1043A0001A440368B2FBF5F2DB0707D10B6843F050
:1043B00080730B60016841F00101016051004268A7
:1043C00043689B1A8B42FBD90020C4F87401206813
:1043D00040F400602060206820F480602060F0BD20
:1043E0001C1900203F420F0040420F00001000E067
:1043F000FCED00E02002304124000E40034880899B
:1044000008B101207047002014F0BEBD24470020F1
:1044100010B5022812D0012827D0C0BB1C480329A0
:10442000026842F00902026031D30168C906FCD576
:104430001B49425842F48062425010BD144C20681F
:1044400020F0010020606068C007FCD0606840F088
:1044500001006060FFF77AFF0E480F4900680860AE
:10446000E06840F00100E06011E00C4840F20723F2
:1044700002689A43063202600548032904D30849BA
:10448000425822F4806242500168C906FCD510BD32
:1044900098010E4024470020EC00304130100040CD
:1044A00068FEFFFFF8B53048EFF3108472B6304B6A
:1044B0009625016821F480610160C16E21F00051F0
:1044C000C166D0F8981121F00101C0F89811274970
:1044D000426A0A401A43284B4262264A12681A442A
:1044E000264BB2FBF3F3264A1668F60708D1254E91
:1044F000376847F080773760166846F00106166027
:104500006B4355685668761B9E42FBD91E4A1F4D69
:1045100013682B4006331360136843F08003136065
:10452000136823F08003136013682B400633136075
:10453000D36923F00303D361426A114041F400615F
:1045400041621348202180F8001301210160FFF728
:10455000FDFE104900201EF0B9F90F481EF004FAC4
:1045600004B1F8BD62B6F8BD00000E40FFF2DFFFF7
:10457000000520001C1900203F420F0040420F00A0
:10458000001000E0FCED00E030100040F8FDFFFFFF
:1045900000E100E0FD434000114440002DE9F04FF0
:1045A00097B00446DA48DFF86483DA4F013020F030
:1045B000010900200890204602F082FB002800F04C
:1045C0009E8198F8CC0000EBC00509EB45004088BF
:1045D0003E68ADF8240046B100200222002300907E
:1045E000112009A9B047BDF8240010F03D0F40F09C
:1045F0002981680009EB000BBBF8040000F00F0AEA
:10460000BAF1050F24D15E4636F8100F002852D0BB
:10461000400000F1005709F1370020F0010061303F
:1046200020F00100B93020F001004B3020F00100F3
:10463000673020F0010000F2073020F0010000F5A3
:104640004070874280F05981B148874234D254E1AA
:10465000BAF1030F2CD1B04850F8240090F8940020
:1046600030B35E4636F8100F002800F0A1804000FD
:1046700000F1005109F1370020F00100613020F015
:104680000100B93020F001004B3020F0010067300C
:1046900020F0010000F2073020F0010000F540702A
:1046A000814280F02B819A48814280F0828025E10E
:1046B0000BF1100696E0002714A839460C2216F0DC
:1046C000A1F8388A7D8BADF84C00B87CB5F5486F01
:1046D0008DF84E00F869119097F820008DF8480089
:1046E00063D80A2D61D3F98A06295ED3B1F5486FE4
:1046F0005BD83A8B90087C2857D8501C4843B0EBC5
:10470000850F52D297F82100049208910021FF22D0
:104710003C230590B88A0790F87C0390F8680690CF
:10472000BBF80400029000200D90ADF838000B900B
:10473000ADF83000BDF85400ADF8400014980F906B
:1047400040F2072013F016FFBBF80CC0BBF80A10AC
:10475000BBF80830BBF8062007467048C2F3813228
:104760006FF39F2330F812200020D200CDE9000221
:1047700041EA0C420AA80DF1260114F09CFB00202E
:1047800001213C707870644887F8351050F8240097
:1047900090F87820D20659D56149C979002954D0BA
:1047A000BBF80410C1F3401150E00020089019E05C
:1047B000002114A80C2216F025F8BBF8045040F292
:1047C00002200021FF22082313F0D4FEC5F380113C
:1047D000047041701499C0F80210BDF85410C180E3
:1047E00013F0E4FE30884B4FF0B1400000F100536D
:1047F00009F1370020F00100613020F00100B930EC
:1048000020F001004B3020F00100673020F0010063
:1048100000F2073020F0010000F5407083426BD2B7
:104820003B48834201D267E000233D6814934DB1B9
:104830000C20BAF1050F08BF2220009014A9022213
:104840001220A84702F0D4F9B5E6002187F8361007
:10485000B0F87C1011B190F8901000E0002187F8BA
:104860003810BDF84C10DDE90403DDF818C0DDE9AF
:10487000022E7D84F9809DF84E1038840898C7F880
:1048800002C0C2F3801287F81BE087F83720397224
:104890001199F883079879629DF84810B8830A98AF
:1048A00087F828100B993863C7F80910BDF8301045
:1048B000A7F80D10590987F82A1003F01F0187F88F
:1048C0002910BDF83810A7F813100D99C7F80F106C
:1048D0000F99C7F81510BDF84010A7F81910BDF8CA
:1048E0002610B985BBF80600800B87F834003846DF
:1048F00013F05CFE012059E7FEE7FEE7FEE70898AB
:1049000000F0010017B0BDE8F08F00BF983A00201A
:10491000043D0020E4480020903A0020903B002015
:10492000A81800202DE9F04188B0DFF8C0810446C6
:10493000D8F800301BB10A20022101229847002C30
:104940005AD0D8F8003094F891602BB106F12800C5
:1049500001210122C0B2984760680321644DB0FB79
:10496000F1F101EB4101401A542106FB01F7795B9B
:1049700021F03F0108432530785394F8780010F077
:10498000130F3AD0E06D411C08D06268E919801A13
:10499000584A10401422B0FBF2F0888194F89F002E
:1049A000D8B36068E16B7D2294F89130091A21F048
:1049B00000415143B4F87E208908C2EB021201EB9A
:1049C00042014D4A914258D84C4A4FF49675914253
:1049D0004FF4967238BF1E22B1FBF2F21FFA82FC2E
:1049E000474A91424ED81E220025B1FBF2F2C2EB9B
:1049F0000212A1EB42014AE0FEE7E06E0028C1D0BE
:104A000094F89E000028BDD194F89F000028B9D1E9
:104A100094F8910000F042FBB4E760680021029036
:104A20003A488DF81C600596019000208DF8190019
:104A30008DF81D000F208DF81B00C8007D21ADF8FA
:104A40000C00A07D8DF8180031480068807D8DF83D
:104A50001A00206948438008049001A814F062FEFF
:104A6000D8F80030012084F893001BB10A200221FD
:104A70000022984708B0BDE8F08100214FF0000CFB
:104A8000002504E0B1FBF5F202FB1511802594F836
:104A90009A7017F0F80F00D0FEE794F89B2012F000
:104AA000C00F00D0FEE703EB430E164B45EA072587
:104AB0005FFA8EFE1B88332B38BF45F0400545EA70
:104AC0000203114A013222F00102373222F00102C0
:104AD000BCF5005F02EB0E156B8105D24FEA0E1399
:104AE0001A44A2F80CC09AE7FEE700BFE84800208D
:104AF0003A013141FCFFFF7FD47E2500C4BF030093
:104B0000C3BF0300A8180020043D0020154B40003F
:104B1000981800202DE9F0410E460546042A08D0D9
:104B2000012A2ED0002A40F0A180F0B229460022AE
:104B30002AE0DFF83C81D8F800301BB10A200321BD
:104B4000012298474B48F7B250F82740BCB194F87F
:104B50009300411E022913D2D8F800303BB106F170
:104B6000280000210122C0B2984794F8930002283F
:104B70000DD138460121002200F06AFB6DE0FEE70E
:104B8000FEE7F0B229460122BDE8F04176E094F854
:104B90009F0028B3E06BA84222D104F13800012124
:104BA00015F0F2FBD4E91901281A20F000408842E0
:104BB0000ED33148A67D0068C77D15F011FEB919E6
:104BC00000F0030065660844FF2828BFFF20A07599
:104BD000204615F05BFAE8B3E06D013034D1FEE712
:104BE0002046012115F0D0FBB4F87800000713D45B
:104BF000206EA16E281A20F0004088421AD31E4869
:104C0000A57D0068C67C15F0EBFD616800F003002F
:104C100021667119084409E01749A07D0968497D9A
:104C20000D1815F0DDFD00F003002844FF2828BF13
:104C3000FF20A075204615F029FA58B194F89F007E
:104C400058B9E06D013004D094F8910001213C2264
:104C500092E7FEE7002084F89300D8F800302BB1EB
:104C60000A2003210022BDE8F0411847BDE8F08189
:104C7000E8480020903A0020981800202DE9FE4FC7
:104C8000DFF8FC9317468A460546D9F800301BB179
:104C90000A20052101229847DFF8E86356F82540ED
:104CA0006CB3D9F8003004F138082BB105F12800B5
:104CB00000210122C0B2984794F89F0018B1E06B20
:104CC0005045404600D02046012115F05DFB94F888
:104CD000900094F893100130022984F8900011D0CC
:104CE000B4F87C1011B1C0B281420BD994F8910094
:104CF000FFF754FC30B328460021002214E0FEE701
:104D000001F076FF284601F0DBFF0028F8D1B4F867
:104D10007C0030B194F890104322884288BF002272
:104D200000E000222846012100F092FAD9F8003074
:104D300033B10A200521002203B0BDE8F04F184727
:104D4000BDE8FE8F626A6AB1B4F87800C10601D589
:104D5000400707D494F82C102846012300F0C4FA29
:104D600000206062A26A82B1B4F87800C10602D461
:104D7000800702D409E0400707D494F82E10284693
:104D8000012300F035FB0020A062B4F8780010F099
:104D9000130F18D194F89E10A9B1E06E50B115F020
:104DA0001FFDB4F87A106FF31F3001F4704108440E
:104DB000A4F87A0094F8910000F0F6FB002084F843
:104DC0009E00B4F8780001073CD4C00619D494F8CA
:104DD0009F0010B1E06B504513D156F8251091F8A3
:104DE000912002EB42005FFA80FBA848013020F0DE
:104DF0000100373020F0010606EB0B100089C004DB
:104E000066D494F89F0068B3E06B50452AD1002F18
:104E100000F09A80D4E91901AAEB000020F00040CC
:104E20008842C0F09680984994F84E000968C97D80
:104E30000E1815F0D5FC00F003003044FF2828BF01
:104E4000FF2084E02FB3904EA07D3168497D0F187C
:104E500015F0C6FC00F003003918FF2928BFFF2118
:104E6000306819E06FB3206EA16EAAEB000020F04D
:104E70000040884229D38449A07D0968C97C0E1866
:104E800015F0AEFC00F003003044FF2828BFFF20DF
:104E90001AE07D480068017DA175E16D407DC4F890
:104EA00004A0E1604FF4607161F39F10A08220467E
:104EB00015F0ECF8002840F0CC80002084F8930036
:104EC00034E771480068807CA07504F1600042E01E
:104ED000CDE9012102F056F9DDF808C040288CF830
:104EE0009B0030D24FEA0B1131444A8922F03F0235
:104EF00002434A815421019A5143654A8B5A6FF308
:104F00009F2343EA80238B5200239CF891109CF846
:104F10009C204FF0000CA2F1010E01EB410B01337C
:104F200003EB0B01C9B206EB0112A2F802C0DAB220
:104F300096453FF466AF090131444A8922F03F02A9
:104F400002434A81EBE7FEE74F480068807D84F822
:104F50004E0004F16400C0F800A094F89F00A8B1CE
:104F60006068504512D148480068C67C15F038FC8E
:104F700000F003004FF42071304461F39F10A16EE4
:104F8000A082E06B401A20F0004010E03E48E66D41
:104F90000068C77C15F024FC00F00300711C384445
:104FA00000F03F0005D000F56040A082E06DE060B9
:104FB00002E000F52040A08215F012FC40F2411101
:104FC000B0FBF1F202FB1100A16E5144084420F045
:104FD00000406060204615F059F860B194F89F00D9
:104FE00080B3002084F893004FF0FF306060E06DE4
:104FF000411C2AD19AE6002084F8930094F89F007F
:1050000000283FF493AEE06B50457FF48FAE94F8E8
:1050100099006268A36EE16D03FB00231A4A4D1CE0
:10502000126823F00040D27D02F03F0216D05B1AD6
:105030006FF04045616423F00043AB4238BF08463F
:1050400014490CE0E06D411C07D0E16881427FF417
:105050006DAE284601213C2266E6FEE70E4911436B
:10506000E0634046A4F84C1015F010F800283FF417
:105070005DAE002084F89F00A06C206156E600BF62
:10508000E8480020903A002098180020043D0020B5
:105090004C01314100E0FFFF00A0FFFFF0B585B0FB
:1050A000654951F8204094F89F002546002818BF14
:1050B0003835B4F8780010F0130F00D0FEE7E06E3A
:1050C0000028FBD094F89E000028F7D194F89200B5
:1050D00002A90DF1060203AB04F0A8FC686802996E
:1050E0004FF07D0C0A1A22F00047421A22F00042CB
:1050F000B7F1804F88BF5742B4F87E30626F042604
:10510000A3EB031302F596725B0007FB0CF797FB0A
:10511000F6F71F44974217DCBDF806700137ADF86B
:105120000670E76E07EB870701EBC7052F1A25F01E
:105130000041451B27F00047029125F00045B7F1DB
:10514000804F88BF6F42E0E73C4900204FF0000CE1
:105150008F420EDC3A494FF496728F42C8BF01204D
:105160004FEA401C37488742B8BF1E2297FBF2F037
:1051700080B2354A9DF81030344F92F8CA2003F0BF
:105180001F0343EA42128DF8102094F8912002EB9D
:1051900042020132D6B27A1C22F00102373222F0EA
:1051A0000103BDF8062003EB0615E9896D89C5F3F7
:1051B000003541EA0545E5B303F1610105F100550C
:1051C00021F00101B93121F001014B3121F0010140
:1051D000673121F0010101F2073121F0010101F5F0
:1051E00040718D4226D2BD4224D3B4F878403101BB
:1051F0001944A6064FF0000658BF0626640748BFAC
:1052000006360989C9044FF0050158BF0221130A67
:1052100031446854C0F30420294440EA0C004B7424
:105220000A744870039848609DF81000087205B031
:10523000F0BDFEE7FEE700BF903A0020D47E2500D7
:10524000C3BF0300C4BF0300983A0020043D002000
:105250002DE9F843DFF88C90EFF3108872B659F817
:105260002050B5B30F46044628460021164615F0D7
:105270008BF8B5F87800C10606D405F13800002196
:1052800015F082F8B5F87800000702D5022014F076
:1052900069FCBFB140F207200021FF223C23002718
:1052A00013F068F980F835704670047036B1B5F8BF
:1052B0007C1011B195F8907000E0002780F83870EC
:1052C00013F074F959F8240012F074FF002049F823
:1052D0002400B8F1000F01D0BDE8F88362B6BDE844
:1052E000F88300BF903A00202DE9F04107463E4880
:1052F0001C461546884650F82760B6F87800C00668
:105300001FD415F06DFAB6F87A106FF31F3001F460
:1053100070410844A6F87A007CB307EB47000130DF
:10532000C2B2324801F0BCFB27D0613102F1005714
:1053300021F0010101F062FB8F4201D287421DD2B0
:10534000FEE707EB4700C0B2000104B3274901F0B4
:10535000E9FB1318DE885B89C3F3C02346EA0343E5
:10536000ABB1613203F1005722F0010201F078FB8A
:10537000974201D28F420BD2FEE7002796F89100A8
:10538000C6F88450A6F88C8000F00EF923E00027C0
:10539000164908F1060601F0C5FB10448388DBB20C
:1053A00043EA062383805DB1613222F0010201F0FD
:1053B00035FB04D28D4202D305F1604101E0FEE7E6
:1053C0000021C1804FF4006202EA5111428922F4A7
:1053D0000062114441812FB124B13846BDE8F0414B
:1053E0000CF004B8BDE8F081903A0020043D0020A4
:1053F0002DE9F04105466A48984616460F4650F892
:105400002540B4F87800C00621D415F0E9F9B4F8C5
:105410007A106FF31F30B8F1000F01F470410844A7
:10542000A4F87A0043D005EB45000230C2B25D48D3
:1054300001F036FB3BD0613102F1005521F0010152
:1054400001F0DCFA8D4201D2854231D2FEE705EB54
:105450004501481CC0B20001B8F1000F39D0514AD3
:10546000531C23F00103373323F001031C18E58894
:105470006489C4F3C02445EA044454B3613304F19D
:10548000005523F00103B93323F001034B3323F01C
:105490000103673323F0010303F2073323F0010311
:1054A00003F540739D4201D2954213D2FEE70025D9
:1054B00094F89100C4F88860A4F88E7000F074F835
:1054C000D5B3B8F1000F37D02846BDE8F0410BF056
:1054D0008DBF0025DFF8CCC006370CF1010222F0A9
:1054E0000102373222F001021418A38843F00403AA
:1054F00023F00B03A380A388DBB243EA0723A38036
:10550000E6B102F1610323F00103B93323F0010393
:105510004B3323F00103673323F0010303F2073316
:1055200023F0010303F540739E4204D2664502D383
:1055300006F1604603E0FEE7BDE8F08100264FF487
:105540000063E680C9B203EA5613668902EB0111D3
:1055500026F400663344638102F16003994219D254
:10556000D1B102F1610323F00103B93323F0010348
:105570004B3323F00103673323F0010303F20733B6
:1055800023F0010303F54073994204D2614502D32D
:10559000490802E0FEE7FEE70021815290E700BFE4
:1055A000903A0020043D00202DE9F04F91B0DFF843
:1055B000A8B5824600250F95ADF83A505BF82070EB
:1055C000DFF89805013097F89160B7F8784020F03F
:1055D0000100373020F001000D90613020F0010112
:1055E000272016FB00100C916A30109001F0CAFDC4
:1055F00087F89B0006EB4600C7F87E503D6714F025
:10560000030500F1010806D0E90740F08780A907EB
:1056100000F1CE80FEE7B7F88C1019B9F96E0029B9
:1056200000F04681B7F87810002549064FF00001D8
:1056300001D501F063FA0DF13A060124CDE90451D8
:10564000C1B20DF13C0B0DF1400950460722002379
:10565000CDE900550896CDE90244CDE9069B00F05E
:10566000FBFFD7E91B12D7F8843010440F930029B1
:105670003867B7F88C00ADF83A00B7F878000896AC
:1056800018BF0121C0F38012C0F3800300F0200096
:1056900084EA50108DE8390004A85FFA88F50023E9
:1056A00080E8060A50462946072200F0D5FF396FE8
:1056B00097F89B200844402A38672BD2E1485421B0
:1056C0001AFB01035C8C6FF39F2444EA82225A8404
:1056D00097F89A20042A1ED20AFB01F10B5A23F0F4
:1056E000300343EA02120A520D9B03EB05126033AA
:1056F0009A420B9310D24FF0000B002A00F0FE806C
:105700000C9B01F09CF908D2DFF850349A4204D384
:105710005208F4E0FEE7FEE7FEE7FEE7B7F8781090
:105720000024CDE90A8A49064FF0000101D501F0B5
:10573000E5F9DDF82C900DF13A0B0126CDE9044195
:10574000C1B20DF13C0A0DF1400807222B46CDE90C
:105750000044CDF820B0CDE90266CDE9068A48467E
:1057600000F07AFF396FD7F884202B4608440F9257
:1057700007223867B7F88C00ADF83A00B7F8780020
:10578000CDE90264CDF820B0CDE9068A01F0C3F975
:105790000A98CDE90441C6B24846314600F05CFFA4
:1057A000396F08443867BDF83A0000285CD0FEE73E
:1057B000B7F87810002449064FF0000101D501F038
:1057C0009DF90DF13A020126CDE90441C1B20DF176
:1057D0003C0B0DF1400950462B46CDE900440892A0
:1057E0000722CDE90266CDE9069B00F035FF396F4F
:1057F00007222B4608440DF13A013867B7F87800C4
:105800000891CDE90264CDE9069B01F084F95FFAC5
:1058100088F6CDE904415046314600F01DFF396F4E
:10582000084497F89B10386740291AD2CC48542274
:10583000D0461AFB020301F067F90AFB02F101F0FE
:105840004DF902F1600A55450CD2002D00F0A08000
:105850000C9AC24E01F0E2F805D2B54203D36A08B1
:1058600098E0FEE7FEE7FEE797F89B100DF13A0996
:1058700040291AD2BA480B9D542215FB020301F0AD
:1058800043F905FB02F101F029F902F16006B54286
:105890000CD2002D00F0AE800C9A01F0BFF806D2B9
:1058A000AE4A954203D36A08A5E0FEE7FEE7FEE7AD
:1058B000B7F878100DF13A024FF00109002508926F
:1058C0000FAA10ABCDE90255C1F38014C1F38006D5
:1058D00001F02001CDE906320722002389EA5111A7
:1058E000CDE90454CDE90016C1B2504600F0B4FE33
:1058F000396F87F89F500844386717E10022084441
:105900004FF00109C2850C9801F0BAF80C90BDF86F
:105910003A00002800F0088197F89100B7F8781055
:10592000012209F1010934460896CDE900BB0023A4
:10593000CDE9022B0722C1F3801100EB4000CDE935
:1059400004B110A900EB0906504606910FA9F5B263
:105950000791294600F080FE396F0D9A08440B9993
:10596000386702EB0510884210D238B10C99884292
:105970000DD27A4988420AD3400800E000205FFA3D
:1059800088F1B046264609015052C0E7FEE7FEE71F
:10599000724E00220844C28597F89A10032908BF66
:1059A00002210C2013F06AFA396FD7F888200844D6
:1059B0000F9296303867B7F88E00ADF83A0097F836
:1059C000910000EB400000F1020B0D985FFA8BF1A3
:1059D00000EB011050450BD20024B0B30C9A10AB71
:1059E00001F03EF8904204D2B04202D340082EE0CB
:1059F000FEE7FEE700220844C28597F89A100329C3
:105A000008BF0221222013F039FA396F084496307A
:105A1000386797F8910000EB40000230C1B20D9852
:105A200000EB0112B2420BD20020002A66D00C9B80
:105A300001F005F808D2494B9A4205D352085EE0BE
:105A4000FEE700BF2A013141FEE7002010AB2880AD
:105A50000DF13A02B7F8780008920122069300236C
:105A6000CDE90024CDE902240722C0F38010CDE95E
:105A700004400FAD4046079500F0EEFD4FF00209DF
:105A8000BDF83A00002863D097F89100B7F8781075
:105A90000DF13A0209F10109CDE90044CDE90244D2
:105AA000002308920722C1F3801100EB4000CDE9EA
:105AB000044110A900EB09064046CDE90615F5B2F0
:105AC000294600F0C9FD0D9A02EB0510504513D28E
:105AD00050B10C990FAD00F091FF88420DD21F49D3
:105AE00088420AD3400801E000200FAD5FFA8BF135
:105AF000B34609015052C3E7FEE7FEE700222A80C1
:105B0000CDE9068A0122CDE90200CDE90400002397
:105B1000CDF82090DDF82CA0CDE9002208225046D7
:105B200000F09AFD4FF00209DFF82CB0396F4FF406
:105B3000397209F1010087F89C005BF82A0002EB3A
:105B400081017D22B1FBF2F1016111B0BDE8F08F5E
:105B5000DFF804B0C246E9E7903A0020043D002097
:105B60002A013141B0B501280ED0022810D1094DCB
:105B7000012460B2002807D4E0B255F8200008B133
:105B800012F018FB013CF4E702480021C0E90011C3
:105B9000B0BD00BF903A00202DE9FE4FDFF8C4A54C
:105BA00089460446DAF800301BB10A2000210122A0
:105BB0009847DFF8B47557F8240050B10C24DAF890
:105BC00000301BB10A200021002298472046BDE882
:105BD000FE8FA0200021002512F076FA002847F859
:105BE000240000F09E80064601F0D0F88046304642
:105BF000A02114F02EFEDFF87405DFF878B5DFF889
:105C00007015358186F89140DFF86C25C6E90605E8
:105C1000B9F81C0031624D46A6F8780099F82A00C0
:105C200086F89400DBF80000817CC07CB1754FF4ED
:105C3000207161F39F10B082D9F80C0000EB800056
:105C40008000B06655F8060F3063A888B086287FBC
:105C5000697F86F89500E87F86F8961086F89700A9
:105C600095F8210086F8990095F82000013886F80B
:105C7000980095F82200013886F89A00E87E00F036
:105C80000F010009515C105C084486F89D0014F077
:105C9000A7FDB6F87A106FF31F3001F4704101448C
:105CA000A6F87A1095F8231010293BD240EA01306B
:105CB000FF22A6F87A0099F8200086F89220A6F82C
:105CC0007C00D9E90420D9F81810C6E92120B6F8DB
:105CD0007800C6F88C10C10625D496F8910096F885
:105CE0009910002918BF012186F89F10FFF75CFC6E
:105CF000DFF890140020DFF89024A6F84000C6E9F1
:105D000014103069B265B064DBF80000817DC07D9D
:105D100086F84E104FF4207161F39F10A6F84C00E6
:105D2000B4E0FEE7FEE7A0F1100196F891700529B6
:105D300012D8DFE801F0031C1D221C1396F89D0009
:105D4000C74940F664334FF0020E10FB03107D216B
:105D5000002390FBF1F01AE01D2808D100F0C8FEE6
:105D60004FF0010E10FB03107D2101230DE0FEE733
:105D700000F0BEFE4FF0060E03E000F0B9FE4FF05B
:105D8000000E10FB03107D210023B0FBF1F0306109
:105D9000019707EB47004FF47F67CDF8088007EACB
:105DA0000011DFF8D8730091013727F0010737376A
:105DB00027F00107BC4607EB010B0027ABF8087082
:105DC0001BB199F8233003F00107DFF8B4134FEA51
:105DD00000184FF4C060002F18BF4FF4D060C9798D
:105DE000704401F0070140EA411099F8221001F0D7
:105DF000010140EA8110ABF8040096F878004007F2
:105E000006D4B9F818006746002875D0C1B20EE074
:105E10000CF16100019A2721674620F0010012FB76
:105E200001022868062142F86A0FA888908020465F
:105E30000023FFF759FA99F82200042160F3861134
:105E400008F1100000F47F6007EB0008A8F80410C8
:105E5000B6F8781049070AD4B9F81A10002955D0B5
:105E6000D9F81420C9B220460023FFF7C1FAB6F8CA
:105E70007800410701D4800726D4584600210180CC
:105E8000ABF80210DFF8ECB2DDF80880B6F8781055
:105E9000080706D404F0E000C90610D400285CD03E
:105EA000FEE708F5204020F00041022013F048FEF4
:105EB000B64814F0E00F8088306103D0FEE7002878
:105EC0004DD0FEE7C5214BE007F16000804511D2BF
:105ED000B8F1000F00F09B8007F1610020F0010095
:105EE00000F0CEFD804506D2A448804503D34FEA9A
:105EF00058008DE0FEE7FEE70020ABF80600BBF897
:105F00000A0020F40060ABF80A0094E7B8F8041027
:105F1000062262F31F21A8F804100021A8F8061039
:105F2000B8F80A1021F40061A8F80A1007F160011E
:105F30008B4510D2BBF1000F6FD007F1610121F04A
:105F4000010100F05BFD8B4506D28C498B4503D3E4
:105F50004FEA5B0162E0FEE7FEE7C62100E0C421F4
:105F600099F8227099F82430542204FB02F007F0CB
:105F700001077F0347EA0427042B0F448449475253
:105F80001CD29B0314FB02125533B0F5A87F138279
:105F900015D20F18A888B8852868B86299F8230028
:105FA00002280DD2F88548F22700788296F89700EB
:105FB0007F2806D1774890F8250007E0FEE7FEE746
:105FC000FEE7744940B28A69002190476B49B88264
:105FD00096F891004A1C22F0010200EB4000373293
:105FE000C0B222F0010303EB001203F16000824211
:105FF0000BD20020A2B1613323F0010300F01FFD9A
:1060000004D28A4202D351080BE0FEE7FEE70020EB
:106010000099C85308F1020030E70021C15326E778
:10602000002139834BF6D661798148F68961B981BF
:1060300045F25551F981F88478830821B6F8780043
:1060400001EA5000F88396F89A0010F0FC0F00D097
:10605000FEE796F8981011F0FC0F03D0FEE700BFA2
:1060600034FEFFFF41EA001040EA81007880B9F871
:106070000000B880B9F80200F880B9F8040038814F
:1060800099F8210008283AD2B98C21F0E00141EAC0
:106090004010B88496F89F0058B1B6F87E004FF4CF
:1060A0009C61C0EB001001EBC0007D21B0FBF1F062
:1060B00030610020B9F81E10C6F8048030812046F7
:1060C00000F0BEF9F06D411C09D07064DBF80000EF
:1060D0004FF46071C07D61F39F10A6F84C00EFF3A0
:1060E000108572B6B6F87800C00609D496F89920E3
:1060F000716806F138003AB1B36E5A4305E0FEE725
:106100004FF0FF313C2010E0B26E114421F000410D
:10611000F16313F0BBFF28B10020482186F89F00EF
:10612000102001E064203C217158315096F899000C
:1061300018B9B6F87800C0060AD5304613F0A6FFA5
:1061400030B9B9F81E10204600F07AF97068306650
:106150000024002D86F893407FF431AD62B6002410
:106160002DE500BFE8480020903A00202549400076
:106170009961400098180020FC614200043D002015
:10618000A81800202D63400065624000944800205C
:1061900028013141A0460020F8B5304D04462B6857
:1061A0001BB10A200321012298471CB194F89300E7
:1061B00008B1FEE7FEE7B4F87800000725D4606870
:1061C000216EA26E401A20F0004090422BD324484A
:1061D000A67D0068C77C14F003FB616800F0030033
:1061E0002166B9190844FF2828BFFF20A07514F0C4
:1061F000F7FA40F24111B0FBF1F202FB11006168C5
:10620000084420F0004060600DE01549A07D096859
:10621000497D0E1814F0E4FA00F003003044FF2822
:1062200028BFFF20A075204613F030FF58B194F826
:106230009F0040B9E06D01300ED094F8910001212B
:106240003C22FFF705F82B683BB10A20032100220E
:1062500001B0BDE8F0401847FEE7F8BDE84800206F
:1062600098180020F8B52D4D04462B681BB10A2064
:1062700003210122984724B36068D4E90B12401A25
:1062800020F0004090420FD32548A67D0068C77DCE
:1062900014F0A6FA616800F00300E162B91908443D
:1062A000FF2828BFFF20A075204613F0EFFE50B353
:1062B000606A013006D094F8621011F0F80F02D035
:1062C000FEE7FEE7FEE794F8632012F0C00F00D06F
:1062D000FEE742EA0122134994F85900098800EBCD
:1062E0004000C0B23329104938BF42F0400200F0EC
:1062F000E7FB11D20023000184F8673023690844CA
:1063000044F8283C82812B683BB10A2003210022FB
:1063100001B0BDE8F0401847FEE7F8BDE8480020AE
:1063200098180020A8180020043D002070B588B0FF
:106330003D4D04462B681BB10A20022101229847DB
:1063400014B32B6894F859602BB106F12800012191
:106350000122C0B29847B4F8400010F0130F14D0D7
:10636000606A411C0AD0626854217143801A2F4A26
:1063700010401422B0FBF2F02D4A885294F86210BB
:1063800011F0F80F0DD0FEE7FEE7606B0028E7D0B4
:1063900094F866000028E3D194F85900FEF77EFED9
:1063A000DEE794F8632012F0C00F00D0FEE742EA67
:1063B0000122204906EB4600C0B2098833291E4954
:1063C00038BF42F0400200F07BFB2BD200010844B2
:1063D0000F21828119488DF81B108DF81C600596DD
:1063E000216901900020ADF80C008DF81D008DF89A
:1063F000190060680290A07D8DF81A008DF81800D1
:106400007D2048438008049001A813F08BF92B6885
:10641000012084F85B001BB10A200221002298476A
:1064200008B070BDFEE700BFE8480020FCFFFF7F1A
:1064300046013141A8180020043D0020154B4000C2
:106440000F4BEFF3108272B653F8200050B1B0F842
:1064500078301B0707D461B1436801EB810103EB7E
:10646000811103E0FEE7416801F5204121F0004180
:1064700001E04FF0FF31C16502B1704762B670476D
:10648000903A0020F8B51B4E054633681BB10A2030
:106490000121012298471848EFF3108772B650F88F
:1064A000250058B190F89310012909D0B9B92846B0
:1064B000012100220024FEF7CBFE11E00C240FE0A6
:1064C00090F891105422012351430C4A8B5202211F
:1064D00080F893100A48016841F0007101600024BF
:1064E00007B962B633681BB10A2001210022984720
:1064F0002046F8BDE8480020903A0020460131418E
:1065000000003041B0B50A4BEFF3108472B653F877
:1065100020302BB193F893501DB15A62998503E056
:10652000FEE70123FEF7E0FE04B1B0BD62B6B0BDE8
:10653000903A0020B0B50A4BEFF3108472B653F8CE
:1065400020302BB193F893501DB19A62D98503E0A6
:10655000FEE70123FEF74CFF04B1B0BD62B6B0BD4B
:10656000903A0020B0B50C4A52F820408CB1EFF3BD
:10657000108572B631B1A06A50B10AF037FF002021
:10658000A06205E0606A18B10AF030FF0020606286
:1065900005B1B0BD62B6B0BD903A0020F0B50D4C6B
:1065A000EFF3108372B654F820407CB194F8954014
:1065B000E40709D0084F54250C0C00FB05F610FB2E
:1065C0000570F153448082800BB1F0BDFEE762B6E6
:1065D000F0BD00BF903A00202C01314110B5124CA3
:1065E000EFF3108372B654F8200078B1A0F87C2045
:1065F000002280F89020B0F87820120707D461B10B
:10660000426801EB810102EB811103E0FEE7416882
:1066100001F5204121F0004101E04FF0FF31C1655B
:1066200003B110BD62B610BD903A002010B5094C00
:10663000EFF3108372B654F8200038B10124C2661B
:1066400080F8921080F89E400BB110BDFEE762B654
:1066500010BD00BF903A00202DE9F04F8BB0984656
:1066600004910B01DE490192DDF854E0169DDDF83E
:106670005CC0013121F00101373121F0010200211C
:106680000592D152149A002A18BF0622144602F12C
:106690000609BEF1000F18BF4C46002D189D18BF0B
:1066A0000234BCF1000F18BF0334002D199D18BF30
:1066B00012342544EFB2002F18BF6F1C3C46BCF1CA
:1066C000000F08BF2C1D1C9D2E8856FA87F6262E1B
:1066D00038BF3C461A9F252EC24E88BF0121BEF10D
:1066E000000F56F820A09AF89100CDE9020308D0D7
:1066F0003868DAF8306086501044BAF83420828066
:1067000000E09146169841EA0C0B30B1BAF87A00D5
:10671000396821F8090009F102091898BBF1000F46
:1067200018BF09F1030928B3AF48122190F8CA60D5
:1067300006AF384614F08DF8DAF86C0007F109015D
:1067400007F10D023B1DADF81A009AF8920003F014
:1067500097F99DF820003946122200F01F0040EA08
:1067600046108DF820001A980068484414F04AF842
:1067700009F11209199868B19AF897600EF032FD84
:106780000A2190FBF1F01A990968304401F80900D8
:1067900009F10109288840B1C4F12501CFB2B842FE
:1067A00038BF0746C01B288000E0002718F0FC0F08
:1067B00000D0FEE714F0C00F00D0FEE7149B4FF4AA
:1067C00080714FEA88120298002B18BF41EA8812A4
:1067D000159900EB4005E0B20029169918BF42F464
:1067E00000720029189918BF42F400620029199913
:1067F00018BF42F40052002918BF42F48042BBF196
:10680000000F18BF42F4805205991043039A8E1866
:106810003081E019DDF810800130C0B245450396A3
:1068200008D19AF898109AF89D6012F027FB9630DC
:1068300070430CE09AF89A1012F020FB9AF891102D
:1068400001EB41010131414508BFCAF87400DDF890
:1068500068C0BBF1000F1DD0644900F596768842F0
:106860001BD863494FF49673624A884238BF1E238F
:10687000B6FBF3F14E1C4545B1B214BFAAF8801027
:10688000AAF87E100025904288BF012506FB03F080
:10689000EA0105E00022002102E00022002130464A
:1068A0009AF89A3013F0F80F00D0FEE79AF89B5050
:1068B00015F0C00F00D0FEE74F4E42EA03223688A3
:1068C000332E38BF42F04002039E2A43B1F5005FE9
:1068D00072811ED2B181DCF80010E1B1059A6132FB
:1068E00022F00102B93222F001024B3222F0010201
:1068F000673222F0010202F2073222F0010202F5B1
:106900004072914206D2364A914203D301F160426D
:1069100002E0FEE7FEE700224944F281CCF80010D5
:106920004FF4805101EA1211728922F4805211440D
:106930007181159921B19AF8961001F0010200E0D9
:106940000022149B0021002B4FF000031CBF9AF87B
:10695000953003F0010301B1FEE7002101B1FEE72C
:10696000019D15F0F00F00D0FEE73C441B99013467
:1069700045EA042444EAC21242EA8312B2800022A9
:106980000B68DBB1059C613424F00104B93424F0B8
:1069900001044B3424F00104673424F0010404F2B0
:1069A000073424F0010404F54074A34205D20C4CD2
:1069B000A34202D303F1604401E0FEE70024F48027
:1069C0004FF400653B4405EA5414758925F40065CD
:1069D0002C4474810B6072800BB0BDE8F08F00BF57
:1069E000043D0020903A0020983A0020A87D250020
:1069F00098BE030097BE0300A8180020B93121F00B
:106A000001014B3121F00101673121F0010101F257
:106A1000073121F0010101F540717047B93222F0D0
:106A200001024B3222F00102673222F0010202F22F
:106A3000073222F0010202F5407295427047B933E5
:106A400023F001034B3323F00103673323F00103E9
:106A500003F2073323F0010303F540739A427047B2
:106A6000B93222F001024B3222F00102673222F0E9
:106A7000010202F2073222F0010202F54072704771
:106A8000B93020F001004B3020F00100673020F0D9
:106A9000010000F2073020F0010000F5407070475F
:106AA000411C21F00101373121F0010101EB0212FB
:106AB000D3885289C2F3C02243EA0242002A7047B7
:106AC000013121F00101373121F0010101EB001307
:106AD0005A81B4F84620B2F5005F70470A5A42F076
:106AE000100222F020020A520D9A02EB061570479E
:106AF00096F89D008C2140F65C63704797F89810DB
:106B0000B1FA81F1490970475C8C6FF39F2444EA24
:106B1000812159847047C0F38011C0F38000CDE912
:106B2000006070474A1C22F00102373222F0010255
:106B3000704700002DE9F0412A49DFF8AC800020C1
:106B400081F8CC0008F1010121F0010505F13601C1
:106B50008D4240D205F1370245454FF0000122F049
:106B6000010228BF012100F039FB02F54076B54251
:106B700038BF01200840B5FA85F1490908432BD0F8
:106B800005F160402946002D6FF0350718BF410818
:106B90001648016027B37C19B4F8460038B14000AC
:106BA00000F10050B04218D240450ED215E00AF074
:106BB00039FB38B1B04211D240450FD3C1070ED1D5
:106BC000400800E00020A4F84600208F12376FF341
:106BD000DF302087DEE7FEE7FEE7FEE7FEE7FEE7C1
:106BE000BDE8F081983A0020043D002024003041A7
:106BF000F8B5314C314F94F8CC00791C21F00105E7
:106C000000EBC00205EB42015600098AE9B105F12B
:106C10003702490022F0010201F10051613222F0F5
:106C20000102B93222F001024B3222F00102673236
:106C300022F0010202F2073222F0010202F5407254
:106C4000914201D2B94228D2FEE70AF0EBFAF8B13C
:106C500005F1370121F00101613121F00101B93164
:106C600021F001014B3121F00101673121F00101D7
:106C700001F2073121F0010101F54071884205D28E
:106C8000B84203D3C10702D1400802E0FEE7FEE7A5
:106C90000020A919088294F8CC0001300321B0FB30
:106CA000F1F101EB4101401A84F8CC00A8194188A8
:106CB0006FF3DF314180F8BD983A0020043D002099
:106CC00070B51E4991F8CC1001EBC1021C4901318D
:106CD00021F0010101EB4203B3F90230B3F1FF3FB0
:106CE000C4BF002070BD174B52009C7B14B1002420
:106CF0009C731AE0144B154C1B682344144CB3FBD3
:106D0000F4F4144B1D68ED0708D1134D2E6846F0BE
:106D100080762E601D6845F001051D605D6804EBFE
:106D2000C4045E68761BA642FBD911440989A0EB16
:106D3000D120B0FA80F0400970BD00BF983A002021
:106D4000043D0020244700201C1900203F420F0072
:106D500040420F00001000E0FCED00E0252809D2C1
:106D6000B0B5094B1C1814F9945F21B1032D07DC51
:106D7000691C04E0FEE715F1030F01DB691E2170B9
:106D800043F82020B0BD00BF983A002012F0C2B8EE
:106D90002DE9F84F04460138012800F209818B4D96
:106DA000F421284613F055FD0020252804D0291889
:106DB00081F8CD000130F8E7252085F8F2008448FD
:106DC0000188152901D2072017E01F2901D20620CA
:106DD00013E0332901D205200FE04C2901D2042011
:106DE0000BE0652901D2032007E0972901D2022098
:106DF00003E00020FB2938BF0120A5F8CA0013F0EA
:106E0000EFFC744D744A296821F4807129600021D7
:106E100050705180286840F00040286028680028A1
:106E2000FCD400204FF0FF316C4FE860A9610021D5
:106E3000302904D07A180831A2F85001F8E70094FC
:106E40004FF41E71DFF8A8A101244FF00308D5F814
:106E5000D00020F48050C5F8D00061482860614817
:106E6000C5F8E0004FF4B370E8605F48C5F8200152
:106E70005E48C5F83001C5F83411C5F83801102056
:106E8000C5F83C11C5F848010AF1010020F00109DC
:106E900009F1360B4E46042C2DD0E0B2B0FBF8F1D0
:106EA00001EB4101401A40EAC00009EB400058459F
:106EB0001CD230B100F07AF91CD250451AD34008E8
:106EC00000E00020308070886FF3DF3070800AF0BF
:106ED000A9F960B100F06AF90AD2504508D3C10798
:106EE00007D14008013430821236D4E7FEE7FEE7CE
:106EF000FEE7FEE7FEE7D9452AD209F13702002076
:106F00000021D14522F0010228BF012100F066F9DD
:106F100002F54072914538BF01200840B9FA89F165
:106F20004909084315D009F16040B9F1000F18BFB5
:106F30004FEA5009C5F82490002004280AD0398867
:106F400021F4F85141EA0021013027F8541BF4E7FD
:106F5000FEE7FEE7D5F890001F4A4FF4A871C0F392
:106F6000062028309080D5F89400C0F30620183011
:106F7000D080D5F8980080B201EB10201081D5F8B0
:106F8000980080B201EB1020508113F029FC4FF4DF
:106F9000007464F39F50C5F8780113F021FC64F38A
:106FA0009F50C5F87C01286840F480702860009CE0
:106FB0002046FEF7D7FD204602F07AF9204603F07E
:106FC000E3FA2046BDE8F84F02F036B9983A0020BF
:106FD000A8180020000030418C3B002028013141DE
:106FE00007061000F0007201D902FFFF78020600C8
:106FF000043D002000487047983A0020B0B5FF2AB1
:107000001ED0124B022A33F8304044F4004423F8D7
:10701000304013D2C4001D5B062825F4804545EAA4
:1070200082321A531A5B42F002021A5307D28A883C
:107030001819C2800968C0F80210B0BDFEE7FEE76B
:107040000348016821F480610160B0BD78023141DC
:1070500000003041FF2A0CD0094931F8302022F0DD
:10706000020221F8302031F83020D20706D100F09A
:10707000C6B80448016841F480610160704700BFF0
:1070800078023141000030412DE9F8432A4E89460B
:107090000446717811F0010804D113F0A1FB717856
:1070A000307001E030780139F578DFF890E001F0D8
:1070B0000F0300F001024FF0010C09060CFA02F771
:1070C00082F001021EF805500CFA02F243EA0513A1
:1070D0003B4323EA020209F00F032270F2781EF804
:1070E0000220120142EA11716170F27871781EF883
:1070F00002200131717000F00301000643EA021220
:107100000F4B0CFA01F1A270B2789B5C1B0143EAB1
:10711000107008430321E070501CB0FBF1F101EB4B
:107120004101401AB8F1000FB07002D02068C0438E
:107130002060BDE8F88300BF8C3B0020C74B4200B5
:10714000C44B420070B50E4BEFF3108172B60022B3
:107150000024252A0DD2D50802F00706455DF5402A
:10716000ED071EBF53FA84F585F8CD2001340132B6
:10717000EFE783F8F24001B170BD62B670BD00BFA9
:10718000983A002080B513F02BFB074991F8F220C4
:1071900042B1C0B2B0FBF2F303FB1200084490F816
:1071A000CD0080BDFEE700BF983A002009F137010D
:1071B00021F00101613121F00101B93121F001011A
:1071C0004B3121F00101673121F0010101F207315A
:1071D00021F0010101F5407188427047613222F0CF
:1071E0000102B93222F001024B3222F00102673271
:1071F00022F0010202F2073222F00102704731F858
:1072000030206FF3DF3221F830207047114901EB55
:1072100080008068E8B1B0F882108A075CBF072060
:10722000704790F8462072B1B0F87820B0F87A3004
:10723000B0F844001A44101A47F6FF7280B2904228
:107240003CBF08207047062011F00C0F08BF052036
:107250007047FEE7983B002001480088704700BF58
:10726000A818002070B5154901EB80008068B0F8BF
:107270007210F9B1D0E9192393421CD9104CB0F81F
:107280007650114E24882C440E4DB5FBF2F5B3FB1D
:10729000F2F2751B013AB5FBF4F4013C944238BF9D
:1072A00022468A4228BF0A46A0F8722090B2B0F562
:1072B000FA7F01D270BDFEE7FEE700BF983B0020D9
:1072C000A818002000DE580020A107002DE9F04F8B
:1072D00085B00E46DFF894130290904601EB8000D3
:1072E00085680020ADF80E00E14803681BB10B2053
:1072F000062101229847B5F88200AF6C81070BD5B3
:10730000C10709D00021B8F1000F85F8941003D00F
:1073100095F8AC1000294CD0D649F21B22F000425F
:107320008A4209D8B5F87A200132A5F87A206A6E27
:107330003A4422F00047F0E795F84620AC6D012A68
:1073400040F08A8095F84320002A40F08580B5F807
:107350007820B5F87AE0B5F844307244A2EB03081F
:1073600047F6FE731FFA88F29A4275D895F84230B4
:10737000002B66D1AB8FFC1810F0010C1CBFB5F8C8
:10738000403004EB530424F00047002A41D06B6ED8
:1073900003FB1274AEEB020224F00047012A04DB67
:1073A000331B23F000438B4231D86B6B0132DC1965
:1073B000F2E740F20C410140B1F5806FACD1B5F875
:1073C00072100029A8D095F846208AB1022AA3D1CC
:1073D000B5F87830B5F84420DB4313441AB2002ADC
:1073E000D8BF00239BB28B4202D2012A114693DB05
:1073F000012285F89420B5F87A200A4489B2A5F8CC
:107400007A206A6E02FB017121F0004784E7A5F83B
:107410007A200121EB8F85F84210D5E90D12BCF1DD
:10742000000FA5F87230C5E9191205D095F88C0047
:10743000FFF718FFB5F88200C10704BF012185F8E6
:1074400043103C465FEA084106D0696EA8F1010886
:10745000611A21F00044F5E7800705D4686E00EB5F
:1074600040004FEA400A03E0D5E9190100EB010AA8
:107470004FF00E0B381B20F00040504580F0CF80BD
:10748000B5F882000497C007384654D0B5F86E00AE
:10749000ADF80E00286D381A20F0004611F0E0FE1D
:1074A00008B1142003E028463146FFF7D5FEB5F8B1
:1074B000761008444FF4FA417043B0FBF1F0B5F890
:1074C000821010304FEA400B11F0020105D1B5F8DF
:1074D00070207D235A430BEB920B95F84620012A2E
:1074E00005D195F8422012B195F8432052B179B1F7
:1074F000696E7D2251436FF0950202EBD101884203
:1075000006D3B1E0B5F840007D2148430BEB900B6A
:107510006FF00400BDF80E30049A002100EA8B00E1
:10752000CDE9001004A80DF10E0111F0C4FCBDF866
:107530000E00288104986860284612F0A7FD0028F4
:1075400079D04D4895F81680D0F800900298FFF752
:107550005DFE09EB4000467813F042F9B5F87A1069
:1075600006EB080200F0030010440131A5F87A1080
:10757000FF2828BFFF20A87595F84620686E012ACD
:10758000384420F000477FF475AF95F84320002A77
:107590007FF470AFB5F878201144B5F84420891A0B
:1075A00047F6FE7289B291423FF664AF95F84210F9
:1075B00019BBA98F4418B5F8820010F001011CBF57
:1075C000B5F8402004EB5204EB8FD5E90D2AA5F85D
:1075D0007230C5E9192A39B195F88C00FFF742FEDF
:1075E000B5F88200D5F868A0012124F0004785F89D
:1075F0004210C00708BF85F84310B5F87800B5F809
:107600007A103C460844B5F84410401A01043FF48F
:1076100031AF696E0138611A21F00044F6E7B5F820
:1076200082000822800758BF3E220298104C012198
:1076300000F088FD0FE000200D4CAF6485F88D0050
:10764000B5F88200C00706D0BDF80E00A5F86C00A2
:107650000BF10E00E86423681BB10B200621002209
:10766000984705B0BDE8F08F0822DEE7983B002080
:10767000E8480020FEFFFF3F98180020B0F8822065
:10768000520400D4704711F02F0F05D0B0F89610B7
:107690000131A0F8961070470906F3D5B0F898109C
:1076A0000131A0F8981070472DE9F04F89B081465C
:1076B000DFF8240400EB890085680690B5F88200A5
:1076C00020F00400A5F8820005F1A00003904FEA25
:1076D000092001300590DFF80804013020F0010A8C
:1076E0004846FFF7EDFA002800F0F381DFF8EC03DD
:1076F00090F8CC0000EBC0040AEB44004188ADF8E0
:107700001E10B0F804B0C688DFF8D80307684FB180
:1077100000200DF11E010222002300902120B84715
:10772000BDF81E102846FFF7A9FFB5F88230BDF856
:107730001E2023F48060D107A5F882001AD16100D1
:10774000D5F854805C0412D523F48840DB07A5F8F3
:1077500082000CD00AEB01039C895F8947EA04444C
:10776000C5F89C401B896FF39F23A5F89A3012F04F
:107770002E0F1ED00024FFF709FB07465CB112F064
:107780007BF9484505D1DB48C169F0B2884785F8E7
:107790009300012105E095F9930010F1450F05DBF9
:1077A0000021C6F305203A46FFF7D8FAFFF720FA82
:1077B00096E710F0010205D051448B89498941EACE
:1077C00003412965C10500F1C580B5F8783040F462
:1077D0008071A5F88210A5F87C301AB9A86C2865CC
:1077E00040467CE095F84610012903D195F84210F7
:1077F000002949D1800747D5D5F8A800411C43D0BE
:10780000B5F8A610B5F89A20511AD5F89C20101A90
:10781000FA2220F0004000FB0210696E01FB02F327
:107820000222089090FBF3F493FBF2F204FB13079F
:1078300004FB03F19742C8BF04FB03318B1883425A
:10784000C0F243818A1A824200F33F81A64A401A5D
:107850005043B5F9A22090FBF1F001B2A5F8A000C9
:107860009142C8BFA5F8A200B5F9A4208A42C8BFBA
:10787000A5F8A4009B48046834B1042003990222AF
:107880000090232008ABA047B5F89A30D5F89C208B
:1078900095F891009549A5F8A630C5F8A82031F8CB
:1078A00010000021C000CDE9001008A807A911F0C0
:1078B00002FB95F84600012808D195F8420028B14E
:1078C000012085F84300484600F0D8FCBDF81C00B4
:1078D000B5F88210A5F86E0008986865A8648A0754
:1078E00011D441F00200A5F88200C80732D00698F2
:1078F0000599FF220223846840F2152010F03AFE19
:10790000616EE1B9DFE0C90724D0696E002900F09B
:10791000DB80A0EB080020F00040B0FBF1F202FB9E
:107920001100B8B106980599FF220223846840F23D
:10793000162010F01FFE616E002900F0C880626DF5
:10794000B2FBF1F303FB11211422B1FBF2F1018030
:1079500010F02CFEB5F88200BDF81E10820706D587
:1079600011F0C00204BF40F48060A5F882002A6DC7
:10797000AA654A0600F1A580C90639D40020B0EBFB
:107980001B2F00F09E8006984FEA1B28BBF5A06FC6
:10799000876805D3B7F88200800648BFA8F10408BD
:1079A0004E4890F8CC0000EBC0010AEB4100008A81
:1079B00030B3400000F100530AF1370020F001001D
:1079C000613020F00100B93020F001004B3020F090
:1079D0000100673020F0010000F2073020F00100C4
:1079E00000F54070834271D23D48834209D26DE078
:1079F000022140F0800085F88D10A5F8820060E03B
:107A00000023384804910893046834B15FFA88F081
:107A100002220090222008A9A0470BF00304601E58
:107A2000022821D2324803681BB10C200321012215
:107A30009847059940F20F20FF22082310F09AFD85
:107A400008998471A0F80480016010F0AFFDB7F8C8
:107A50008200049C40F00400A7F8820024480368D8
:107A60005BB30C20032126E0032C31D120480368AE
:107A70001BB10C2002210122984708F1080005994A
:107A8000FF2283B240F20D2010F074FD80F80280D6
:107A900008994160B7F87810018010F087FDB7F8B9
:107AA0008200049C40F00400A7F88200104803689C
:107AB0001BB10C2002210022984760000021504495
:107AC0000182012457E6FEE7FEE7FEE7FEE7FEE758
:107AD000FEE709B0BDE8F08F983B0020983A0020FF
:107AE000043D0020E448002040420F00903B00206D
:107AF000E8480020A04600202DE9F04188B0DFF8DA
:107B0000B8810446D8F800301BB10B2002210122B5
:107B10009847002C50D0D8F8003094F88C602BB1E6
:107B200006F11E0001210122C0B29847B4F87A0084
:107B3000B4F87810542301446048A4F8781016FB78
:107B40000302A2F84A10B4F8827027F4824101F5CA
:107B5000804206FB03F1BB05A4F8822016D5B4F8D9
:107B60007E20B4F87A3094F88B7007FB032225232B
:107B7000B2FBF3F707FB132243181F8A27F03F07D6
:107B800017431F82A4F87E20B4F882200023D20776
:107B9000A4F87A3016D0E26CB2F5804F0ED302F51D
:107BA0001C7240F27123B2FBF3F213B2B3F1FF3F48
:107BB00003DD434B1A4303E0FEE7FEE701325208C0
:107BC00043189A8294F84630002243B3B4F84470C4
:107BD000B4F87850ED1B47F6FE77ADB2BD421ED823
:107BE000012B18D0032B4FD0022B60D194F83830E2
:107BF000202B0ED20844A18EC183E18E018494F81B
:107C00003810202906D2438C23F01F0319434184E6
:107C10004DE0FEE7FEE794F84300002847D1002737
:107C200028487D218DF81C6005968DF81D20ADF843
:107C3000192001900F208DF81B00606802902089A8
:107C4000ADF80C00A07D8DF81800E06D4843E16CA4
:107C500001EB9000049001A811F064FD94F88D00F0
:107C600002281CBF012084F88D001FB194F88C00FD
:107C700000F004FBD8F800301BB10B2002210022D9
:107C8000984708B0BDE8F08194F83530042B10D245
:107C90000D5A25F00C0545EA83030B5294F8343055
:107CA000042B07D2455A25F003052B4343520127E5
:107CB000B6E7FEE7FEE700BFE84800202A013141B1
:107CC0000080FFFFC97C40002DE9FE4F042A0BD83D
:107CD0000E460146DFE812F0050009000F0014000F
:107CE000FF00F0B2002202E0FEE7F0B2012203B092
:107CF000BDE8F04F12E1F0B203B0BDE8F04F97E1FC
:107D0000814F3B681BB10B200721012298477F4818
:107D1000F1B200EB81008468002C00F0D78094F869
:107D20008C00019194F88E1004F1280500EB4000BE
:107D30000844310201F1010A7549013121F00101C4
:107D4000373121F0010994F89010002900F0C78024
:107D50004FF47F6101EA001009EB0008B8F8020057
:107D6000410440F0B48000B2B0F1FF3F00F3B980AD
:107D7000B8F804B0B8F80600B8F80A10C1F3C0218A
:107D800040EA0140D8B100F1005309F1610020F050
:107D90000100B93020F001004B3020F001006730C5
:107DA00020F0010000F2073020F0010000F54070E3
:107DB000834280F08D805648834201D288E00023C0
:107DC0005448029306683EB1B8F804000222000A43
:107DD0000090252002A9B0470BF00300411E0229A4
:107DE00034D23B681BB10C20052101229847B8F81A
:107DF0000400000A052804D3B4F88210490648BFDD
:107E0000043880B2E8B12E68002E62D0029932891F
:107E1000084471686FF39F221144884211D32846A9
:107E200010F05BFB206BB04204BF00202063706841
:107E300009F0ACFA1FFA8AF14FF40470FF2210F037
:107E4000C7FB3B68D3B10C20052115E0032841D1C5
:107E50003B681BB10C20042101229847029809F0CD
:107E6000BBF91FFA8AF140F20E20FF2210F0B0FB9E
:107E70003B681BB10C2004210022984794F8900025
:107E8000254A013884F89000B8F80410927C21F05B
:107E9000100102F00F0241EA0211A8F804103B6839
:107EA0001BB1C2B203200421984794F88E1003221C
:107EB00094F88C00013100EB4000B1FBF2F202EBD0
:107EC0004202891A84F88E1008443CE7FEE7FEE778
:107ED000FEE7FEE7FEE7F0B2BDE8FE4FCAE0002293
:107EE00000E00822B4F88210019821F00801114343
:107EF000A4F8821000F00CFD3B681BB10B20072199
:107F000000229847BDE8FE8FE8480020983B0020FB
:107F1000043D0020E4480020A81800202DE9F84383
:107F2000DFF8FC8091460F460446D8F800301BB1BC
:107F30000B200521012298473A4800EB8400856810
:107F400055B3D8F800302BB104F11E0000210122F6
:107F5000C0B29847344806683EB1002005F1780168
:107F60000222002300902820B04720463946FFF720
:107F70009BFB2846012112F007FA95F88D00022894
:107F80000BD1B5F882003D22000658BF16222046CC
:107F9000012100F0D7F837E0FEE7FEF7F7FE0746CD
:107FA000B5F87A00696E0130A5F87A00A86C08442B
:107FB00020F00040A8642046FFF728F9B9F1000F2F
:107FC0000AD1B5F87810B5F87C208A4204D1174957
:107FD000096811F810000EE01449096801EB40002F
:107FE000A97D4078461812F0FBFB00F003003044F6
:107FF000FF2828BFFF20A875B5F882003946C0F3D6
:1080000000222046FFF762F9D8F8003033B10B2088
:108010000521002201B0BDE8F0431847BDE8F88310
:10802000E8480020983B0020E448002098180020F1
:1080300070B50E4E0C46054633681BB10B2004216B
:10804000012298470A4800EB8500806858B128460D
:108050002146FFF729FB336833B10B2004210022AE
:10806000BDE870401847FEE770BD00BFE84800203B
:10807000983B00202DE9F8432F4F04463B681BB185
:108080000B200321012298472C4800EB84008568CF
:10809000F5B13B6833B195F88C00002101221E3008
:1080A000C0B29847FEF772FE064695F88D0001387B
:1080B00002280ED22846012112F066F995F88D00AB
:1080C000022807D120460121162200F03BF828E0C3
:1080D000FEE7FEE7B5F87A00696E95F81680013084
:1080E000A5F87A00A86C084420F00040A864144861
:1080F000D0F800902046FFF789F809EB400040785F
:1081000000EB080412F06CFB00F003003146204441
:10811000FF2828BFFF20A87595F88C000022FFF7E4
:10812000D5F83B6833B10B200321002201B0BDE834
:10813000F0431847BDE8F883E8480020983B00204A
:10814000981800202DE9F84F80464A4800EB880A2D
:10815000DAF80840002C00F08A8000297CD04FEA31
:1081600008201546FF220123411C4FF4057010F032
:1081700001FA057010F01AFA04F12809484610F0C7
:10818000ACF93D49064694F890004FF0030B0131DD
:1081900021F00101373121F0010701064DD094F89B
:1081A0008C2094F88E1002EB42020A44D2B207EB04
:1081B00002139B8803F003035D1E022D2ED3032BB5
:1081C00038D110013844C1884089C0F3C02041EA49
:1081D0000040D0B107F1610100F1005021F0010130
:1081E000B93121F001014B3121F00101673121F05A
:1081F000010101F2073121F0010101F540718842CE
:108200001AD21D49884201D216E0002008F0E4FF8E
:10821000606A80B994F88E1094F8900001310138AA
:10822000B1FBFBF284F8900002EB4202891A84F859
:108230008E10B2E7FEE7FEE7FEE7606A50B14068E5
:1082400008F0CAFF06E0706809F0A0F8484610F090
:1082500044F90646002EF6D10420414611F0AAFC4E
:10826000DAF808000FF0A6FF0020CAF80800BDE801
:10827000F88F00BF983B0020043D0020B0B50446B5
:108280001B4800EB8400856895F84600012816D04D
:10829000022821D0032811D195F8340095F8351023
:1082A00085F89200204685F8911000F049FA00F018
:1082B000F3FF2002411C40F2132011E0FEE72002F0
:1082C000FF22411C40F2112010F082F9204600F0FC
:1082D00037FA00F0E1FF06E02002411C40F21220D4
:1082E000FF2210F075F9002085F84600B0BD00BFF0
:1082F000983B00202DE9F04F85B08046E04800EB28
:108300008804A06820B10C27384605B0BDE8F08F7E
:108310000F46B020002100260FF0D6FE0028A060F6
:1083200079D00546ADF81260FEF730FD824628464A
:10833000B02112F08EFAD348D3492E8185F88C8073
:10834000C5E906064FF400502962A882CF480068AC
:10835000807BA87597F8240002285DD20021A967C8
:10836000A5F87E1085F89010A5F880102963696241
:1083700085F8AC1085F893107A7DBB7DFC79B7F851
:108380000890BE89B7F80EC0B7F80AE0A5F88E10BD
:1083900085F88B2040F01002A5F8726005F16006A8
:1083A000A5F88220BA4A32F813200EEB8E03DB00C8
:1083B000A5F8762004EB84020CEB8C04D200A40117
:1083C000A5F8702009EB8902D2001CC6B14AB24B55
:1083D000C5F884201B2285F88A204FF4A472A5F8E2
:1083E000882097F82520C5F8A0304FF0FF33C5F856
:1083F0009610C5F8A83042F21073A5F8A43085F89D
:10840000922085F8912010B14046FEF72BFF18F01E
:10841000E00F02D0FEE7FEE7FEE797F824205420A5
:1084200097F825104FF0030908FB00F0002A4FF0E1
:10843000030208BF022211F0FC0F42EA082202F1F7
:10844000C003964A835200D0FEE7CDF808A002EBA5
:10845000000A41EA810040F48850AAF802003888F6
:10846000AAF80A007888AAF80C00B888AAF80E00C2
:10847000B879AAF8100095F88B0097F8261000F04C
:108480001F008A0342EA002040F40040AAF81200CC
:1084900081F00100B5F8821021F4007141EA40201A
:1084A000A5F882007E4890F82500AAF814004046FE
:1084B00000F046F9FB200021DFF8E8C101264FF467
:1084C000004EAAF826000E20AAF81A10AAF81600E4
:1084D0000CF10102388A22F001023732AAF820009A
:1084E00022F00103788AAAF82200B88AAAF82400A8
:1084F00095F88C0000EB400B4FEA0B10042E3AD09D
:10850000F2B203F16004B2FBF9F202EB4202B21ADA
:108510005A44D2B203EB0212A2422AD2C2B103F1F0
:10852000610424F00104B93424F001044B3424F034
:108530000104673424F0010404F2073424F0010438
:1085400004F54074A24215D2624513D3520800E0EC
:10855000002200F47F6410300136E252E218A2F8E3
:1085600002E09180D180548924F400645481118107
:10857000C4E7FEE7FEE703EB0B1003F1600188425E
:1085800019D2D0B103F1610121F00101B93121F01B
:1085900001014B3121F00101673121F0010101F2AC
:1085A000073121F0010101F54071884204D2604594
:1085B00002D3400802E0FEE7FEE70020AAF8180018
:1085C000B5F88220D00708D13C6A0020A5F86E00DB
:1085D000BDF812002C65234627E097F825003249A4
:1085E0003B8BFA6931F810000021C000CDE9001082
:1085F00003A80DF1120110F04EFCFC69BDF8120049
:1086000097F8272050232C65A5F86E00002A08BF94
:108610002823039A1A442B6E1A44B5F8703002EBE3
:10862000530222F00043B5F8822012F001020299B1
:10863000C5E91544AB64C2F1000202EA0002A5F8E4
:108640006C2002D100200E2204E0B5F870307D22AB
:108650005A4392082881EA64EFF3108472B64046C8
:1086600000220027FEF732FE04B962B62B8A6A6E3A
:1086700095F88C100420009711F086FA44E600BFAC
:10868000983B0020F97A4000AD8640009818002001
:108690000C6242001B0048010000F0D82801314163
:1086A000A0460020043D0020CA4B42002DE9F041C5
:1086B000DFF88480044600F0DFFD03D00B200321A7
:1086C0000122984734B1FEF761FB054694F88D000E
:1086D00008B1FEE7FEE7B4F87A00616EA77D0130CD
:1086E000A4F87A00A06C084420F00040A06413486D
:1086F000066894F88C00FEF789FD06EB4000407890
:10870000C61912F06DF800F0030029463044FF2826
:1087100028BFFF20A07594F88C000022FEF7D6FD3C
:1087200000F0AAFD05D00B2003210022BDE8F04196
:108730001847BDE8F08100BFE848002098180020E5
:10874000F8B52249224C01EB8001E37889684A6E32
:10875000B1F88250D31A1E3BED0715D02488B1F82A
:1087600076502C444FF47A555443B4FBF5F440252D
:1087700005EB84047D25B4FBF5F41B1BB1F87440B4
:1087800014B1A34228BF23461427124C5425B3FB2F
:10879000F7F310FB0546684373800353122008610A
:1087A000B1F88800B1F8863018444FF4B76303EB92
:1087B00080007D23B0FBF3F01223C86591F88C1084
:1087C00000200090042011F0DFF9F8BD983B002054
:1087D000A818002044013141B0B504460F48EFF31A
:1087E000108572B600EB8400806870B190F88D201F
:1087F000012A0BD06AB949B1002111F0C5FD20460C
:1088000001211622FFF79EFC03E0FEE7022180F81B
:108810008D1005B962B60020B0BD00BF983B0020A6
:108820002DE9F047DFF8E0900D460446D9F8003016
:1088300053B10C20002101229847D9F800301BB118
:108840000D20002101229847304EEFF3108A72B6B6
:1088500006EB8400876817B1786A10B1FEE70C2533
:1088600038E0B7F882007D6240F00800A7F8820087
:10887000204600F04DF897F88D0050BBB7F8820005
:10888000C00726D097F8940018B306EB84008568DB
:10889000FEF77CFA8046B86C796EA0EB080020F0F9
:1088A0000040884215D900F0E3FCB96C786EA1EB6A
:1088B000080222F00042824221D9B7F87A203AB168
:1088C000091A013A21F00041A7F87A20B964EEE7CD
:1088D000FEE70025BAF1000F00D162B6D9F80030EA
:1088E00053B10C20002100229847D9F800301BB169
:1088F0000D200021002298472846BDE8F087204639
:10890000414600F0BDFCE5E7E8480020983B002028
:108910002DE9F84FB24901EB80008468D4F830A00B
:10892000BAF1000F0CD1D4F828A0BAF1000FC4F8A6
:1089300030A005D0BAF808006FF39F20A4F880009B
:10894000BAF1000F4FF0000B1CBFB4F8820010F01A
:10895000100040F02681606ABBF1000F08BF0028BC
:1089600000F0258194F89080B8F1030F1ED194F89F
:108970008F10032294F88C00023100EB4000B1FB11
:10898000F2F202EB4202891A08444FF47F6101EAD5
:1089900000109549013121F00101373121F0010129
:1089A000084441884A0400F00981FEE7DFF834E218
:1089B000DFF83492B8F1020F00F2FE8030B10021EE
:1089C000027A4FF0030C6162416844E09EF81200A5
:1089D000B0FA80F0400940EA0B00C00711D05FEA0E
:1089E000CB7000F0E980B4F88000A8B9DAF8001084
:1089F00089B108898A4621636FF39F20A4F880001B
:108A00000AE094F89000012800F2D68000224FF08E
:108A1000020C49461FE00020BAF808104FF0020C83
:108A200021F4405202F58052AAF8082094F88A20D6
:108A3000904238BF0246831AA4F8803001F44053B4
:108A40006FF39F21B3F5805F08BF4FF0010CDAF898
:108A500004502944091A94F88C7094F88F00B4F8E3
:108A60008250BAF1000F4FF0000B18BF15F010063E
:108A700040F0858007EB4707C6196B0648BF0432F4
:108A80009EF812300BB1F5B208E005F400538BF0FC
:108A9000010545EA5333F5B2002B76D110264CEA96
:108AA000022242EA060309F1010222F001023732F2
:108AB00022F0010202EB0516B380C9B102F1610395
:108AC00023F00103B93323F001034B3323F00103F7
:108AD000673323F0010303F2073323F0010303F5A7
:108AE000407399425BD2494559D301F1604300E09C
:108AF000002329014FF400651144CB8005EA53138C
:108B00004D8925F400652B444B81B4F882309B04D9
:108B100018D4831C0325B3FBF5F505EB45055B1B5A
:108B20004FF47F653B4405EA03131A4453885D0400
:108B300036D11BB24FF0FF35AB4203DD938843F0D3
:108B4000100393800130032394F89020B0FBF3F3DB
:108B5000013203EB430384F89020C01A84F88F009D
:108B600000204880214803682BB1D2B203200421A1
:108B700075469847AE4608F1010800201AE7B4F898
:108B8000806026B14FF0010B74E7002687E7DAF822
:108B900000B0BBF1000F18BF4FF0010B6AE7FEE712
:108BA000FEE7B4F8800090B14FF0010BD3E60D4919
:108BB000897C00297FF4D6AEBDE8F88F09B2002980
:108BC000FAD4818841F010018180BDE8F88FDAF88D
:108BD00000B0BBF1000F18BF4FF0010BBBE600BFA8
:108BE000983B0020A8180020043D0020E848002001
:108BF0002DE9F047DFF8E4800D46044600F03CFB29
:108C00000AD00C2001210122984700F035FB03D047
:108C10000D20012101229847314FEFF3108A72B6DF
:108C200007EB84008668EEB306F1280029460FF0B2
:108C300032FCB6F8820040F00800A6F88200204618
:108C4000FFF766FE96F88D0050BBB6F88200C007AD
:108C500026D096F8940018B307EB84008568FEF7D9
:108C600095F88146B06C716EA0EB090020F00040D1
:108C7000884215D900F0FCFAB16C706EA1EB0902C4
:108C800022F00042824223D9B6F87A203AB1091A7A
:108C9000013A21F00041A6F87A20B164EEE7FEE740
:108CA000002500E00C25BAF1000F00D162B600F0FB
:108CB000E3FA0AD00C2001210022984700F0DCFAE8
:108CC00003D00D200121002298472846BDE8F087F7
:108CD0002046494600F0D4FAE5E700BFE848002006
:108CE000983B00202DE9F84304462648EFF310870F
:108CF00072B600EB8406B568CDB3B5F8820020F0FB
:108D0000100061F30410A5F8820071B32046FFF74C
:108D1000FFFD95F8900040B395F88D0028BBB5F89D
:108D20008200C00721D095F89400F0B1D6F80880F1
:108D3000FEF72CF88146A86C6E6EA0EB090020F0BF
:108D40000040B04211D94046002111F01DFBA86C33
:108D5000A0EB090121F00041B1420ED9B5F87A101B
:108D600011B100F091FAF3E7FEE7002500E00C25D1
:108D700007B962B62846BDE8F8832046494600F0A8
:108D80007FFAF5E7983B0020F0B5174C04EB800024
:108D9000EFF3108472B685681DB195F8460010B1E6
:108DA000FEE70C201CE001EB81010798DDE9057668
:108DB000C900A5F8401002EB820106EB8602A5F877
:108DC00044000120EF87C90085F846000020920189
:108DD000A98703EB8301A5F84200C900C5E90D127C
:108DE00004B1F0BD62B6F0BD983B002010B50E4B4B
:108DF00003EB8000EFF3108372B6806818B190F82F
:108E0000464014B1FEE70C200AE0A0F844200222FC
:108E100080F846200A684263097980F838100020FB
:108E200003B110BD62B610BD983B002070B504467A
:108E30000E48EFF3108572B600EB8400866886B1A9
:108E40002046A6F88830A6F88610A6F88420FFF7FA
:108E500077FC726E96F89210204600F009F8002018
:108E600000E00C2005B170BD62B670BD983B0020DB
:108E700070B5174C174E7D235A4304EB8000806871
:108E800090F8915090F8844036F81550C5EB920256
:108E9000114DED786B43A2EB9302B0F88630A2F24D
:108EA0007E429A4238BF134636F811209A1A0B4B6D
:108EB00033F81110B0F882305B0648BFA2EB810294
:108EC000B2FBF1F1A14288BF214680F88A1070BD43
:108ED000983B0020DA4B4200A8180020D24B4200F9
:108EE00070B5144C04EB8005EFF3108472B6AD68D6
:108EF0001DB195F8466016B1FEE70C2015E085F827
:108F000035200D4A95F89260A5F84430032385F882
:108F1000341085F8463032F8113032F8162093427A
:108F200002D96A6EFFF7A4FF002004B170BD62B6DB
:108F300070BD00BF983B0020D24B42000649EFF3C2
:108F4000108272B601EB8000816802B962B600201F
:108F5000002908BF0C207047983B002070B5104ACC
:108F6000EFF3108472B602EB800293682BB10429F0
:108F700005D15A6E93F892100BE00C200CE0094AD0
:108F800093F8926032F8115032F81620954202D9C7
:108F90005A6EFFF76DFF002004B170BD62B670BD60
:108FA000983B0020D24B4200074901EB8000EFF3D1
:108FB000108172B6806810B1B0F8780000E000202F
:108FC00001B1704762B67047983B0020F0B5204C65
:108FD00004EB8000EFF3108472B686684EB10598FA
:108FE000B6F87850B6F87A702F4438B1B6F86E00FB
:108FF00005E0002000270025002603E00020B56CD6
:10900000766EBFB204B962B602B3791A002402EBDD
:109010008202A4EB014492002414B1F5004FC8BFB2
:109020000CB203EB8301A5EB810104FB061121F0D7
:109030000041B1FBF2F303FB1211FA23521A00298B
:1090400018BF02FB03F1081AC010F0BDFEE700BF15
:10905000983B002010B50B4A00F024F910D054239F
:109060005843094BC45A6FF3DF3461F3CF34C45211
:10907000B2F8820020F0400061F38610A2F882006E
:1090800010BD00BF983B00204201314110B50B4A92
:1090900000F008F910D054235843094BC45A24F463
:1090A000804461F38E34C452B2F8820020F0200074
:1090B00061F34510A2F8820010BD00BF983B00206C
:1090C00042013141F0B5184B03EB80039B6853B369
:1090D000164B54260024002710FB063570439C468F
:1090E00002262C836C83AC83EC832C846C84103537
:1090F000082C06D0FBB256FA87F7D35A2B5302340A
:10910000F6E760440F2200236FF00104102B0AD011
:1091100051FA82F554FA82F235F8015C2DBA2D0C21
:10912000C5520233F2E7F0BD983B002050013141B7
:1091300010B50A4AEFF3108472B600F0B3F809D004
:1091400054225043064A805A064A5269C0B2904798
:109150000CB110BDFEE762B610BD00BF983B002009
:109160003C013141A0460020074901EB8001EFF3AB
:10917000108072B6896829B191F8931000B962B66F
:1091800048B27047FEE700BF983B00200F4901EB53
:109190008000EFF3108172B68268A2B1506E98B170
:1091A000B2F88230DB074FF0540308BF4823D2588F
:1091B00001B962B6B2FBF0F101FB10201421B0FB43
:1091C000F1F080B27047FEE7FEE700BF983B002059
:1091D000094A02EB8002EFF3108072B6926842B146
:1091E000B2F872308B4238BF1946A2F8721008B13B
:1091F0007047FEE762B67047983B002070B5144692
:109200000C4AEFF3108572B602EB800296686EB1DD
:10921000A6F87410FFF794FAB6F8820020F4005014
:1092200064F34D30A6F882000DB170BDFEE762B662
:1092300070BD00BF983B0020B0B5012811D00228B6
:1092400013D10A4D012460B200280AD4E0B205EB24
:109250008001896819B100211622FEF773FF013CD5
:10926000F1E702480021C0E90211B0BD983B00209F
:109270002846002111F088B8D8F80030002B70473C
:1092800000220025FEF722B8801B013920F00040A3
:10929000A5F87A10A86470476A6E95F89210204677
:1092A000FFF7E6BD02EB80029268002A70470000DB
:1092B000B0B501280ED0022810D1094D012460B2AA
:1092C000002807D4E0B200F0CDFE01D00EF072FF0E
:1092D000013CF4E702480021C0E90011B0BD00BF25
:1092E000A83B00202DE9F047844D824600F0BAFEED
:1092F00002D00C20BDE8F0878946642000210027B9
:109300000EF0E2FE002845F82A0049D06421044608
:1093100011F09FFA7A48DFF8F0817A4999F8102025
:1093200084F85AA02781A4F85070C4E906070A20DF
:10933000216299F80F10013AE087B9F8020084F829
:109340005E10D9E90113A4F84C0099F80E0084F8D6
:109350005C00D8F80000007EA075B9F8000000EBB2
:109360008000C0006064204640F8337FC0F82110C0
:10937000664980F82A2001220771A0F8253091F86B
:10938000F2309F420DD2CB19013793F8CD30DD0872
:1093900003F00703465D02FA03F333434355EEE758
:1093A000FEE794F85A0000F0BBF91AF0E00F00D085
:1093B000FEE799F80E105420554D0AFB00F701F016
:1093C00001011AFB0050490341EA0A21C6317953D1
:1093D0004CF22701418294F85E007F2803D14D486A
:1093E00090F8250004E04B4940B28A69002190477B
:1093F0002F445146B882B4F833003884B4F83500AD
:10940000788494F83700B88404F12C00FDF73CFE12
:1094100011F0E6F92086000C84F83200A08D7881E6
:10942000E08DB881208EF88194F83200398A21F0DD
:10943000FF01084440F2712138820020F8847883CB
:10944000A06C00F51C70B0FBF1F0F88394F85D009F
:1094500010F0FC0F00D0FEE740EA001141EA800066
:109460007880FDF793FC616C00293ED02A4A802366
:10947000002600252681D2781044D8F8002001303B
:10948000527E63F39F1220F00043B3FBF1F3A282FC
:1094900042185943081AB9F80C10104401EB810125
:1094A00000EB810020F000406060F0071ED10E2D1F
:1094B0001CD8204610F0EAFDB0FA80F14E090028D1
:1094C000F3D0D8F80010A07D497E0F1811F088F96C
:1094D00000F003003844FF2828BFFF20A075616C0E
:1094E0006068013500F0B9FDDFE7FEE720B100203C
:1094F00084F85B00BDE8F087FEE700BFA83B0020D2
:10950000759540001D95400098180020983A00205D
:1095100028013141A0460020A818002070B5134D45
:1095200004462B681BB10E200321012298471CB171
:1095300094F85B0008B1FEE7FEE70D49A07D0968DD
:10954000497E0E1811F04CF900F003003044FF285A
:1095500028BFFF20A07500F07CFD2B682BB10E20EA
:1095600003210022BDE87040184770BDE848002084
:10957000981800202DE9F04188B0DFF89481044666
:10958000D8F800301BB10E20022101229847002C90
:1095900056D094F85A005F4B542694F84070B4F8B3
:1095A000502010FB0631002F8A8504F1380100EBB2
:1095B000400249D0584FD2B27B1C23F0010337330D
:1095C00023F0010303EB0216F5897689C6F3003612
:1095D00045EA0646AEB303F1610506F1005600F018
:1095E00011FDAE422ED2BE422CD3B4F8505094F8A6
:1095F00061700A353744E587FD712D0A94F8617072
:1096000037443D7294F8615035440E79AE71096863
:10961000C5F8021094F8625005F10901002D08BF49
:109620000A21CEB2402E0ED212011A44138923F021
:109630003F03334313814FF48073A4F8403034E088
:10964000FEE7FEE7FEE7FEE74D7ABDB3E58FB4F82F
:1096500050707D1B47F6FE77ADB2BD422ED800FBA1
:1096600006F5268FEE522B44658F5D8094F83C50B2
:109670009D80002384F841300B790968C4F83310C9
:1096800094F8621084F83730402940D2224BD2B28D
:10969000013323F00103373323F0010303EB0212FC
:1096A000138923F03F030B43138194F8633019446B
:1096B00093880131DBB243EA012191808DF81C00CF
:1096C00005900F20154901258DF81B0060688DF865
:1096D0001D50019100210290A07DADF80C10ADF855
:1096E000191021698DF818007D20484380080490E6
:1096F00001A810F017F8D8F8003084F85B501BB1BF
:109700000E2002210022984708B0BDE8F081FEE754
:10971000E848002048013141043D00207D9B400085
:109720002DE9F04F87B082466948DFF8A88150F8EC
:109730002A7008F1010020F00100373097F85A50E4
:1097400020F0010404F1610020F00109272015FB3D
:1097500000906A300690FDF715FD87F85F00002045
:1097600005EB450B0DF11201A7F84E00B864786DBA
:109770005FFA8BF50590B7F85800ADF81200B7F80E
:109780004C0005AACDE9002106AB2946C0F38012A2
:10979000504600F001FBB96C97F85F300844402B4D
:1097A000B86431D24C4A4FF0540C1AFB0C26718C21
:1097B0006FF39F2141EA8321718497F85D30042B78
:1097C00023D20AFB0CFE3EF8021021F0300141EAE0
:1097D000031104EB051304F16005AB422EF80210EF
:1097E00014D2ABB109F1B9010DF112064DF808ED33
:1097F00000F01AFC5DF808EB8B4208D2434506D313
:109800005B08CDF80C9008E0FEE7FEE7FEE7FEE718
:10981000CDF80C9000230DF1120602EB0E014FF073
:109820000109CB85BDF8121000293ED097F85A00E7
:1098300005A90022CDE9001606AB00EB400000EBC5
:10984000090850465FFA88F6314600F0A5FAB96C6F
:10985000084404EB0611A942B86424D2C1B1039AAA
:109860000DF11206B93222F001024B3222F0010250
:10987000673222F0010202F2073222F0010202F501
:109880004072914210D2134A91420DD3490802E02E
:1098900000210DF112065FFA8BF209F10109C346AE
:1098A0001201A152BEE7FEE7FEE7B93087F86090EB
:1098B00041089C2998BF40F2391080007D21B0FBFF
:1098C000F1F0034951F82A10086107B0BDE8F08FA4
:1098D000A83B0020043D00202A01314170B5054617
:1098E0001848EFF3108672B650F82500A0B190F832
:1098F0005B10012912D001BB0021002410F044FDAF
:1099000000F0A1FB0EF036FE447005700EF04EFE26
:10991000284600F01DF811E00C240FE090F85A10D2
:10992000542201235143084A8B52022180F85B10D4
:109930000648016841F000710160002406B962B672
:10994000204670BDA83B0020460131410000304157
:10995000B0B5054D044600F085FB04D00EF02AFC9E
:10996000002045F82400B0BDA83B0020B0B50A4B4C
:10997000EFF3108472B653F820302BB193F85B509C
:109980001DB15A62198502E0FEE700F007F804B144
:10999000B0BD62B6B0BD00BFA83B002070B500EB03
:1099A0004003DCB2154B5D1C25F00105373525F071
:1099B000010505EB0414E6886489C4F3C02446EA73
:1099C00004440F4E56F820004CB1613504F10054A8
:1099D00000F018FBAC4201D29C4201D2FEE7002409
:1099E0004265A0F8581090F85A00FFF799FE24B18C
:1099F0002046BDE8704007F0F9BC70BD043D002072
:109A0000A83B0020B0B5084951F820404CB1EFF315
:109A1000108572B6606A18B107F0E8FC0020606239
:109A200005B1B0BD62B6B0BDA83B0020B0B5134DC6
:109A3000EFF3108472B600F015FB19D045680D6085
:109A4000B0F85010118090F8411049B1C18FB0F8B2
:109A500050208A4204D190F83C101971806B04E0C8
:109A600090F837101971D0F833001860002000E02A
:109A70000C2004B1B0BD62B6B0BD00BFA83B002051
:109A8000B0B50D4DEFF3108472B600F0EBFA0ED0C6
:109A9000C56A0D6090F832109170018E118090F8B7
:109AA00037101971D0F833001860002000E00C2046
:109AB00004B1B0BD62B6B0BDA83B00200C4BEFF3C3
:109AC000108272B653F8200010B190F841300BB1FB
:109AD0000C2008E00B7980F83C3009688163012193
